:1000000019C028C027C026C025C024C023C022C0D4
:1000100021C020C01FC01EC01DC01CC01BC01AC0F4
:1000200019C018C017C016C015C014C013C012C024
:1000300011C010C011241FBECFEFCDBFDFE3DEBF64
:100040002FE3A0E8BFE301C01D92A338B207E1F798
:10005000DED147C2D5CF0F931F93CF93DF93CDB798
:10006000DEB7FE0137960191119160E070E081E00A
:100070000FC020910804DF0112964081518130E0C9
:1000800024233523232B09F080E06F5F7F4FFD0190
:100090006017710774F3DF91CF911F910F9108954D
:1000A000813031F4E0E0F4E084818E7F8483089530
:1000B000813029F4E0E0F4E084818E7F8483089528
:1000C000813031F4E0E0F4E084818160848308953C
:1000D000813029F4E0E0F4E0848181608483089534
:1000E0001092823FE0E0F4E0808182608083808132
:1000F000846080838081806280838081877F808329
:1001000080818F7E808380818F7B808380818F77C9
:10011000808388E0838B848B868B878B81E0089536
:100120001F9281E08F931F921F9295DF0F900F9087
:100130000F900F908823A1F382E0089581E0B0DF53
:100140001092803F1092813F1AC01F9281E08F93DE
:1001500082DF0F900F90811104C081E0B1DF85E054
:10016000089580E493E00197F1F700008091803FCB
:100170009091813F01968093803F9093813F609161
:10018000803F7091813F072E000C880B990B4AD15C
:1001900020E030E84BEB54E43ED18823B4F281E018
:1001A0008FDF81E07DDF1092803F1092813F1AC087
:1001B0001F9281E08F934FDF0F900F90811104C049
:1001C00081E07EDF85E0089580E493E00197F1F718
:1001D00000008091803F9091813F01968093803F05
:1001E0009093813F6091803F7091813F072E000C7A
:1001F000880B990B17D120E030E84BEB54E40BD17E
:100200008823B4F281E05CDF8091823F811102C0DB
:1002100083E0089587E0089508C01F9281E08F93DE
:100220001ADF0F900F9081110EC01F9281E08F9303
:100230001F921F9210DF0F900F900F900F9081115F
:10024000ECCF84E0089585E0089581E029DF1092E5
:10025000803F1092813F1AC01F9281E08F93FBDE96
:100260000F900F90811104C081E02ADF85E008958E
:1002700080E493E00197F1F700008091803F909136
:10028000813F01968093803F9093813F6091803FB2
:100290007091813F072E000C880B990BC3D020E092
:1002A00030E84BEB54E4B7D08823B4F281E008DFA8
:1002B00081E0F6DE1092803F1092813F1AC01F92BB
:1002C00081E08F93C8DE0F900F90811104C081E010
:1002D000F7DE85E0089580E493E00197F1F70000F0
:1002E0008091803F9091813F01968093803F9093D1
:1002F000813F6091803F7091813F072E000C880BF9
:10030000990B90D020E030E84BEB54E484D0882364
:10031000B4F281E0D5DE81E008958091823F8F5F65
:100320008093823F8091823F90E044975CF42FE677
:100330008FE698E9215080409040E1F700C000002E
:1003400082E0089586E008951092803F1092813FE8
:1003500026C01F9281E08F931F921F927CDE0F9028
:100360000F900F900F90811104C01092823F84E093
:1003700008951F9281E08F936EDE0F900F90882377
:1003800011F180E493E00197F1F700008091803F44
:100390009091813F01968093803F9093813F60913F
:1003A000803F7091813F072E000C880B990B3AD04B
:1003B00020E030E04AE754E42ED0882354F2109233
:1003C000823F83E0089585E00895FFCF80E08111AA
:1003D00002C086DEFCCF813011F4A2DEF8CF82307D
:1003E00011F4ACDEF4CF833011F416DFF0CF84309B
:1003F00011F42BDFECCF853011F48FDFE8CF86309E
:1004000009F4E3DF873011F49FDFE1CF0895DEDFE9
:1004100080E090E008950E944D0208F481E0089584
:10042000E89409C097FB3EF490958095709561958E
:100430007F4F8F4F9F4F9923A9F0F92F96E9BB2744
:100440009395F695879577956795B795F111F8CFC0
:10045000FAF4BB0F11F460FF1BC06F5F7F4F8F4F2B
:100460009F4F16C0882311F096E911C0772321F021
:100470009EE8872F762F05C0662371F096E8862FB9
:1004800070E060E02AF09A95660F771F881FDAF710
:10049000880F9695879597F90895990F0008550F3D
:1004A000AA0BE0E8FEEF16161706E807F907C0F0FA
:1004B00012161306E407F50798F0621B730B840B02
:1004C000950B39F40A2661F0232B242B252B21F4DC
:1004D00008950A2609F4A140A6958FEF811D811D7C
:0604E0000895F894FFCF1F
:04000003000000E019
:00000001FF
